:100000000C9465000C948D000C948D000C948D0064
:100010000C948D000C948D000C948D000C948D002C
:100020000C948D000C948D000C948D000C94CF09D1
:100030000C948D000C948D000C948D000C948D000C
:100040000C94CA130C948D000C9481110C94CF1154
:100050000C948D000C948D000C948D000C948D00EC
:100060000C942B0C0C948D00000000002400270041
:100070002A0000000000250028002B0000000000DE
:1000800023002600290004040404040404040202DA
:100090000202020203030303030301020408102007
:1000A0004080010204081020010204081020000012
:1000B0000007000201000003040600000000000029
:1000C00000007602C70A570F3B1311241FBECFEF63
:1000D000D8E0DEBFCDBF12E0A0E0B1E0E6E6FDE291
:1000E00002C005900D92A430B107D9F714E0A4E046
:1000F000B2E001C01D92AA38B107E1F710E0CAECE6
:10010000D0E004C02297FE010E94AD16C23CD10788
:10011000C9F70E9491130C94B1160C940000CF9370
:10012000DF93BC018230910510F462E070E0A09191
:100130008804B0918904ED01E0E0F0E040E050E097
:1001400021C0888199818617970769F48A819B81EC
:10015000309719F09383828304C09093890480932D
:100160008804FE0134C06817790738F44115510539
:1001700019F08417950708F4AC01FE018A819B8170
:100180009C01E9012097E9F641155105A9F1CA0141
:10019000861B970B049708F4BA01E0E0F0E02AC050
:1001A0008D919C91119784179507F9F46417750741
:1001B00081F412968D919C911397309719F0938347
:1001C000828304C09093890480938804FD01329651
:1001D0004CC0CA01861B970BFD01E80FF91F619304
:1001E000719302978D939C9340C0FD01828193810E
:1001F0009C01D9011097A1F6809186049091870403
:10020000892B41F48091DC019091DD01909387046A
:10021000809386044091DE015091DF014115510524
:1002200041F44DB75EB78091DA019091DB01481B34
:10023000590B2091860430918704CA01821B930BCD
:100240008617970780F0AB014E5F5F4F84179507C5
:1002500050F0420F531F5093870440938604F901D6
:100260006193719302C0E0E0F0E0CF01DF91CF91A4
:100270000895CF93DF93009709F450C0EC012297C3
:100280001B821A82A0918804B0918904109709F109
:1002900040E050E0AC17BD0708F1BB83AA83FE0124
:1002A00021913191E20FF31FAE17BF0779F48D91C1
:1002B0009C911197280F391F2E5F3F4F3983288358
:1002C00012968D919C9113979B838A8341155105BA
:1002D00071F4D0938904C093880420C012968D9144
:1002E0009C911397AD01009711F0DC01D3CFFA0177
:1002F000D383C28321913191E20FF31FCE17DF0721
:1003000069F488819981280F391F2E5F3F4FFA01C8
:10031000318320838A819B8193838283DF91CF9174
:100320000895FB01DC014150504048F001900D92CE
:100330000020C9F701C01D9241505040E0F70895D8
:10034000FC0181E090E00190061609F4CF01002045
:10035000D1F701970895FB0151915523A9F0BF01F1
:10036000DC014D9145174111E1F759F4CD010190A0
:10037000002049F04D9140154111C9F3FB01411195
:10038000EFCF81E090E0019708950F931F93CF93F3
:10039000DF93B82F833008F075C090E00196A82F46
:1003A000AA0FAA0FAA0F0197A53108F0A4E1482FC0
:1003B000440F440F440F71E050E0C62FD0E001E03D
:1003C00010E01EC0842F82508231C0F4242F30E010
:1003D000F901E45FFD4F8081823080F4572BF901F1
:1003E000EE0FFF1FED5DFD4F11821082872F90E011
:1003F0008C239D23892B11F011830083770F4F5F8E
:100400004A1700F3BB2361F4852F8C7FF8942BB13E
:10041000982F909592238623982B9BB9789432C07D
:10042000B13009F5F89495B1852F8F7380958923A4
:10043000962F9F739523892B85B948B1252F30E0DE
:10044000862F90E02823392386E0359527958A95D5
:10045000E1F7529556955695537050955423522B6B
:1004600058B978940FC0852F8F70F89428B1982FC1
:10047000990F990F909592238623880F880F982BB8
:1004800098B97894DF91CF911F910F910895482FDB
:10049000863018F52091040230910502672B81F413
:1004A00081E090E002C0880F991F4A95E2F780959D
:1004B0009095282339233093050220930402089550
:1004C00081E090E002C0880F991F4A95E2F7282B3F
:1004D000392B30930502209304020895833028F4C9
:1004E000E82FF0E0EA5FFD4F60830895CF93DF933C
:1004F000CEE8D2E0CE010E944908239682E0C23BBA
:10050000D807C1F7DF91CF9108950F931F93CF9331
:10051000DF938B01843178F5C82FD0E0FE01E45FD2
:10052000FD4FE081E33091F0E43029F582508C30CA
:10053000E0F49E0122503040C901880F991F820FBC
:10054000931F82579D4F0E94E1080FC0833051F0E6
:10055000853041F0863031F0893021F08A3011F059
:100560008B3019F4B8010E94E014CC0FDD1FCD5D73
:10057000DD4F19830883DF91CF911F910F9108956B
:10058000AF92BF92DF92EF92FF920F931F93DF9390
:10059000CF930F92CDB7DEB7D82E7B01082F10E096
:1005A000F801E45FFD4F8081863061F480918B0219
:1005B000882341F06630710529F010928B028FEF8D
:1005C0008093E2019D2D925099839C30B8F4E4E031
:1005D000EE16F10499F0C80102975C01AA0CBB1C4D
:1005E000A80EB91E8EE892E0A80EB91EC5010E94A1
:1005F000CF08882319F0C5010E9463084D2D4E5085
:100600004630B8F4209104023091050292E0E916D8
:10061000F10409F0E0C081E090E0042E02C0880FF0
:10062000991F0A94E2F7282B392B30930502209367
:100630000402E981E23130F5ED2DE695E695E69587
:10064000980127703070E114F10471F4F0E0E05E7D
:10065000FD4F81E090E002C0880F991F2A95E2F7D4
:100660002081282B20830EC0F0E0E05EFD4F81E06A
:1006700090E002C0880F991F2A95E2F780952081AB
:1006800082238083F801EE0FFF1FED5DFD4F118285
:100690001082F2E0EF16F104E1F083E0E816F104D5
:1006A0004CF4E114F10439F191E0E916F10409F098
:1006B0008BC032C0E4E0EE16F10409F45DC0F4E052
:1006C000EF16F104CCF186E0E816F10409F07CC0E5
:1006D00070C0463008F08CC09981923140F48D2D65
:1006E00060E00E9440158D2D60E00E947F15045F40
:1006F0001D4F82E066C0F981F23108F079C08D2D7E
:1007000060E00E9440158D2D60E00E947F15045F1F
:100710001D4FF80110826CC0F981F23108F068C0F9
:100720008D2D60E00E947F158D2D61E00E944015A7
:10073000045F1D4F81E045C0F3E0DF1681F085E0E6
:10074000D81669F096E0D91651F0E9E0DE1639F0D6
:10075000FAE0DF1621F08BE0D81609F049C08D2DA4
:1007600061E00E9440158D2D60E070E00E94E01471
:10077000045F1D4F83E025C0F981FC30C8F5F80106
:10078000E45FFD4F84E08083C80102977C01EE0C9A
:10079000FF1CE80EF91E8EE892E0E80EF91EC70174
:1007A0000E94CF08882321F5C701B8010E94C8091B
:1007B0001FC09EEED90EE1E0ED15D0F0045F1D4F95
:1007C00086E0F801808314C088E993E060E071E07E
:1007D0000E94E20F0DC081E090E0042E02C0880F5D
:1007E000991F0A94E2F780959095282339231DCF0D
:1007F0000F90CF91DF911F910F91FF90EF90DF90BD
:10080000BF90AF9008951F9380918B02882329F0A9
:1008100010928B028FEF8093E201109206021092E9
:1008200020021092090210920702109221021092E7
:100830000A02109208021092220210920B0210E09B
:10084000812F8E50863020F4812F62E070E003C04B
:10085000812F61E070E00E94C0021F5F143181F7B8
:1008600010920502109204021F9108950F931F9396
:1008700008E913E0C80161E171E042E023E00E9471
:10088000DD10C80160EE45E852E00E94110FC8017A
:1008900060E945EC51E00E94110FC80160EC47E4AB
:1008A00052E00E94110FC80160ED4EE652E00E9436
:1008B000110FC80164EF40EC52E00E94110FC80113
:1008C00060EF4EED55E00E94350FC8016FEF43E039
:1008D00054E00E942F0FC80140E051EE60E070E04C
:1008E0000E944C110E9403041F910F9108951F93C1
:1008F00010E0812F8251823028F4812F66E070E071
:100900000E94C0021F5F1431A1F781E080938B0227
:100910008EE193E00E94670B1F9108951F93CF9380
:10092000DF93282F162FC82FD0E0FE01E05EFD4F89
:1009300080811823442331F4FE01E75FFD4F80815D
:10094000811751F088E993E0622F412F50E00E9417
:10095000AC0EC75FDD4F1883DF91CF911F910895D3
:1009600080910602882349F069B1809120026823B2
:100970006C7F80E040E00E948E0480910702882313
:1009800079F083B166B16295660F660F607C8F73F4
:10099000682B80912102682381E040E00E948E0450
:1009A00080910802882379F086B190E08C73907072
:1009B000959587959595879560912202682382E0A9
:1009C00040E00E948E040895EF92FF920F931F93D0
:1009D000CF93DF93F82EEB01E42E8FEF6F3F780774
:1009E00019F4C0E0D0E014C08EE193E06F2D0E94B6
:1009F0008D0A8EE193E06C2F0E940F0B8EE193E045
:100A00000E94520B80918C0290918D020E94791469
:100A10008EE193E06F2D4E2D0E94630B0E2D10E0A2
:100A20008EE193E00E94970A0817190791F4F0925B
:100A30006B02C0936C02CDE6D2E00C0F1D1F05C007
:100A40008EE193E00E94A00A8993C017D107C1F7F5
:100A500012C08EE193E00E94970A801791072CF450
:100A600088E993E069E471E004C088E993E061E714
:100A700071E00E94E20F82E0E80E88E993E067E708
:100A80004E2D2BE632E00E94DE0EDF91CF911F91BA
:100A90000F91FF90EF900895AF92BF92CF92DF92A7
:100AA000EF92FF920F931F93CF93DF930E94B004B6
:100AB00004C088E993E00E942E1088E993E00E9428
:100AC000850E892BB1F70E94121460934B0270932C
:100AD0004C0280934D0290934E02A0904F02B09032
:100AE0005002C0905102D09052022091E00130910A
:100AF000E10179010027F7FC0095102F6A197B09A5
:100B00008C099D09E616F7060807190708F04BC07F
:100B1000EA0CFB1C0C1D1D1DE0924F02F0925002CE
:100B20000093510210935202CCE0D2E012EF163043
:100B3000C0F488818230A9F480910402909105026A
:100B4000012E02C0959587950A94E2F780FF09C0AF
:100B5000812F0E94BE14AC0188E993E0612F0E94AE
:100B6000910E1F5F2196163011F78091E20187FDEB
:100B70001AC010E00EC0F901EE0FFF1FE20FF31FC5
:100B8000ED5AFD4F6181808170E042810E94E40452
:100B90001F5F212F30E08091E201992787FD90951A
:100BA0008217930744F7DF91CF911F910F91FF9028
:100BB000EF90DF90CF90BF90AF900895BF92CF920B
:100BC000DF92EF92FF920F931F93CF93DF93162F35
:100BD000EA018F3609F44FC1803750F48B3609F49F
:100BE0006AC18D3609F4D3C1893609F048C228C2DA
:100BF000863769F0873720F4803709F040C2E4C0B7
:100C0000883709F4C7C08A3709F039C219C1898108
:100C100085FF05C088E993E068E971E054C0688108
:100C20008871883059F1893018F4882341F027C23F
:100C3000803109F440C0883109F021C264C08EE1DE
:100C400093E00E948D0A02E00EC0FE01E00FF11D4C
:100C500061816795662767958081680F8EE193E0D3
:100C60000E940F0B0E5F011780F38EE193E00E944C
:100C7000520B86E490E00E94791401C29B818A8124
:100C8000163071F4979599279795980F4D81479550
:100C9000442747958C81480F862F692F70E008C044
:100CA000979599279795980F862F6FEF7FEF492F8C
:100CB0000E94E404E4C18091E20187303CF088E9BD
:100CC00093E064EC71E00E94E20FD9C18F5F8093E2
:100CD000E201992787FD9095FC01EE0FFF1FE80FB9
:100CE000F91FED5AFD4F60838B8187958827879583
:100CF0009A81890F81838D818795882787959C812B
:100D0000890F8283BCC15091E201151634F420E0B2
:100D1000C52FDD27C7FDD09511C08FEF8093E2016D
:100D2000AEC1FC01EE0FFF1FE80FF91FED5AFD4F9A
:100D30006083662311F0422F24C02F5F822F90E042
:100D4000C817D90774F740E01CC04830C8F4C9017F
:100D50000196D901AA0FBB1FA20FB31FAD5ABD4FF9
:100D6000FC01EE0FFF1FE80FF91FED5AFD4F8081C8
:100D70008C93808111968C931197828112968C931B
:100D80004F5F242F30E0C217D307FCF65150509329
:100D9000E20175C18981682F70E07695762F66270C
:100DA000779567958881680F711D6115710521F030
:100DB00070938D0260938C0280918B02882309F0DE
:100DC0005EC10E9477045BC1653008F458C1F880A9
:100DD000C980EA80BB80DC808F2D82508C3008F087
:100DE0004EC10F2D10E0C8010297EC01CC0FDD1FA2
:100DF000C80FD91FC257DD4FCE010E94CF088823EC
:100E000019F0CE010E9463084E2D50E05695542FE4
:100E10004427579547954C0D511D2D2D30E03695A3
:100E2000322F2227379527952B0D311DCE01B80182
:100E30000E9449098F2D64E070E00E94C0021FC12A
:100E4000623008F41CC1898190E09695982F88271C
:100E5000979587952881820F911D9093E10180934A
:100E6000E0010A970CF00BC18AE090E09093E10159
:100E70008093E00104C1623008F401C18981682FC8
:100E800070E01230A1F08A8190E09695982F882723
:100E900097958795682B792B133049F02B81922FEA
:100EA0009295990F990F907C80E0682B792B88811F
:100EB0000E948502E4C08BE594E060EF0E94FB1283
:100EC0008BE594E06CE60E94FB1200E01EEF16C07A
:100ED0001231A0F48BE594E060E00E94FB128BE5F8
:100EE00094E061E00E94FB128BE594E061E00E94D7
:100EF000FB128BE594E061E00E94FB12802F8E5084
:100F0000863050F48BE594E062E00E94FB128BE5A2
:100F100094E06AE00E94FB12033051F0053041F08A
:100F2000063031F0093021F00A3011F00B3051F465
:100F30008BE594E063E00E94FB128BE594E068E0AF
:100F40000E94FB121C3050F48BE594E064E00E9498
:100F5000FB128BE594E06EE00E94FB12802F825121
:100F6000823050F48BE594E066E00E94FB128BE542
:100F700094E061E00E94FB128BE594E06FE70E9431
:100F8000FB120F5F1F5F043109F0A2CF73C066230D
:100F900009F475C008818BE594E060EF0E94FB12B4
:100FA0008BE594E06EE60E94FB128BE594E0602FE7
:100FB0000E94FB12043108F05DC0C02FD0E0FE019A
:100FC000E45FFD4F8BE594E060810E94FB128E018F
:100FD000000F111F0D5D1D4FF801608170E06F77EC
:100FE00070708BE594E00E94FB12F80160817181C2
:100FF000CB018078892B59F0660F672F661F770B1E
:1010000070E06F7770708BE594E00E94FB12CC0F5C
:10101000DD1FCD5DDD4F28813981C9018070907C55
:10102000892B41F1330F220B330F322F221F622FF6
:1010300070E06F7770708BE594E00E94FB121AC02D
:101040008BE594E060EF0E94FB128BE594E06AE68A
:101050000E94FB12C2EFDFEFC63018F06FE770E0BE
:1010600001C0BE018BE594E00E94FB122196C630C0
:10107000D10591F78BE594E067EF0E94FB12DF91B9
:10108000CF911F910F91FF90EF90DF90CF90BF9085
:101090000895FC018091B2028C3090F480838F5FC0
:1010A0008093B202815090E0FC01EE0FFF1FE80F29
:1010B000F91FED54FD4F88EB9BE0928381830895E7
:1010C0008FEF80830895DC018C9190E0FC01EE0F9E
:1010D000FF1FE80FF91FED54FD4F80818F7B808348
:1010E0008C916CE00E943B1690E0AC01440F551FC0
:1010F000480F591F440F551F440F551F20E030E083
:10110000C901840F951FFC01EE0FFF1FE80FF91FA7
:10111000ED54FD4F808186FD05C02F5F3F4F2C3081
:10112000310571F70895FC0120812C30B8F58181DB
:10113000992787FD909548E850E0481B590B440FCC
:10114000551F440F551F6417750784F08281992736
:1011500087FD909548E552E0481B590B440F551FF9
:10116000440F551F641775070CF4AB0142505040F3
:10117000CA01AA2797FDA095BA2F880F991FAA1F09
:10118000BB1F4FB7F89430E0F901EE0FFF1FE20FDD
:10119000F31FED54FD4F928381834FBF0895FC01EF
:1011A000808190E0FC01EE0FFF1FE80FF91FED5466
:1011B000FD4F8081829586958695817009F081E04A
:1011C0000895AF92BF92CF92DF92EF92FF920F936A
:1011D0001F93CF93DF93EC019B0182E0603278078D
:1011E0000CF048C077FF03C020E030E005C0653B4D
:1011F000710514F024EB30E000D000D0B90188274D
:1012000077FD8095982F2981332727FD3095E8E8D1
:10121000AE2EB12CA21AB30AAA0CBB1CAA0CBB1C82
:10122000CC24B7FCC094DC2CEA81FF27E7FDF095C5
:1012300028E532E02E1B3F0B220F331F220F331FF6
:10124000442737FD4095542FEDB7FEB721833283F5
:101250004383548320E030E040E050E004EBE02E94
:10126000F12C012D112D0E94D3159B010F900F9091
:101270000F900F90CE01B9010E949308DF91CF919A
:101280001F910F91FF90EF90DF90CF90BF90AF90A4
:101290000895CF92DF92EF92FF921F93CF93DF9347
:1012A000EC01162F7A01690188818C3008F064C046
:1012B000862F61E00E944015888190E0FC01EE0FCE
:1012C000FF1FE80FF91FED54FD4F1F738081807CD5
:1012D000812B808380E292E08E199F0964E070E0A8
:1012E0000E944716698380E699E08C199D0964E0A5
:1012F00070E00E9447166A83A8818A2F6CE00E94E2
:101300003B16682F70E0AB01440F551F460F571F67
:10131000440F551F440F551F20E030E0C901840FD2
:10132000951FFC01EE0FFF1FE80FF91FED54FD4F55
:10133000808186FD15C02F5F3F4F2C30310571F73E
:1013400024C01092800082E080938100109285007A
:1013500010928400B19A80916F00826080936F0038
:101360008A2F90E0FC01EE0FFF1FE80FF91FED54EC
:10137000FD4F8081806480838881DF91CF911F91B0
:10138000FF90EF90DF90CF900895672BD1F2E8CFD8
:1013900040E252E020E639E00E94490908951F9298
:1013A0000F920FB60F9211242F933F934F935F9399
:1013B0006F937F938F939F93AF93BF93EF93FF931D
:1013C0008091D70287FF05C010928500109284009B
:1013D0002BC02091D702332727FD30958091B20290
:1013E00090E02817390704F58091D702992787FDE7
:1013F0009095FC01EE0FFF1FE80FF91FED54FD4F14
:10140000808186FF11C08091D702992787FD909532
:10141000FC01EE0FFF1FE80FF91FED54FD4F808117
:101420008F7360E00E947F158091D7028F5F809359
:10143000D7022091D702332727FD30958091B20241
:1014400090E0281739070CF04EC08091D7028C30FD
:101450000CF049C020918400309185008091D70222
:10146000992787FD9095FC01EE0FFF1FE80FF91FEC
:10147000ED54FD4F81819281280F391F30938900EF
:10148000209388008091D702992787FD9095FC01D1
:10149000EE0FFF1FE80FF91FED54FD4F808186FF0F
:1014A0002BC08091D702992787FD9095FC01EE0F04
:1014B000FF1FE80FF91FED54FD4F80818F7361E02E
:1014C0000E947F1519C080E49CE905C080918400CA
:1014D00090918500049690938900809388008FEF07
:1014E0008093D70209C08091840090918500049672
:1014F00080549C4940F3EACFFF91EF91BF91AF91A7
:101500009F918F917F916F915F914F913F912F911B
:101510000F900FBE0F901F90189581E080931D03D0
:101520006093FA0210921B0310921C0308952091FD
:10153000F90230E08091F802281B3109C9010895B1
:101540004091F8028091F902481718F02FEF3FEF11
:101550000AC0E42FF0E0E852FD4F8081282F30E0F0
:101560004F5F4093F802C9010895E091F80280911D
:10157000F902E81718F0EFEFFFEF06C0F0E0E852CD
:10158000FD4F8081E82FF0E0CF010895089510927B
:1015900021031092200388EE93E0A0E0B0E0809356
:1015A000220390932303A0932403B093250388EE92
:1015B00091E090931F0380931E030895CF92DF92D2
:1015C000EF92FF920F931F93CF93DF937C016B01F8
:1015D0008A0180911D038823A1F0C0E0D0E00DC0F6
:1015E000D701ED91FC91D601AC0FBD1F0190F081A8
:1015F000E02DC7016C9109952196C017D10780F3A2
:1016000004C0CB01642F0E94100CC801DF91CF9160
:101610001F910F91FF90EF90DF90CF900895DF938F
:10162000CF930F92CDB7DEB7FC01698380911D0384
:101630008823C9F080911C03803238F081E090E06B
:101640009383828320E030E015C080911B03E82F54
:10165000F0E0E550FD4F998190838F5F80931B03ED
:1016600080931C0305C0CE01019661E00E94100C1E
:1016700021E030E0C9010F90CF91DF9108950F93E1
:10168000062F8091FA026BEF72E040911C0321E07B
:101690000E94BB0B10921B0310921C0310921D039F
:1016A0000F91089561E00E943F0B0895413208F0C8
:1016B00040E2862F68ED72E00E94720B1092F802F1
:1016C0008093F902089521E00E94560B089510922C
:1016D000F8021092F90210921B0310921C030E9450
:1016E000BC0D0895382F413210F040E042C0809187
:1016F0002A038823E1F791E090932A0320932C0397
:101700008FEF8093970310925203415040935303FD
:101710004F5F90932B0380912B03330F832B809388
:101720002B0380912D03813041F410922D03809181
:101730002B038093BB0085EC01C085EE8093BC0039
:1017400080912A038130E1F380915203841710F4D1
:101750004091520320E030E00AC0FB01E20FF31F8A
:10176000D901AE5CBC4F8C9180832F5F3F4F241713
:10177000A0F3842F08950F931F93582F122F4132F7
:1017800010F081E04AC080912A038823E1F782E0CB
:1017900080932A0300932C038FEF8093970310927A
:1017A000520340935303A2E3B3E0FB0102C08191D3
:1017B0008D938E2F861B8417D0F310922B0380916C
:1017C0002B03550F852B80932B0380912D038130A4
:1017D00041F410922D0380912B038093BB0085EC84
:1017E00001C085EE8093BC00112321F080912A0373
:1017F0008230E1F3809197038F3F11F480E00DC0B8
:1018000080919703803211F482E007C080919703A2
:10181000803311F084E001C083E01F910F9108959F
:10182000482F613210F081E0089580912A038430BE
:1018300011F082E0089560937503A4E5B3E0842F6E
:101840009C01F90102C081918D938E2F841B861714
:10185000D0F380E008951F920F920FB60F921124DB
:101860002F933F934F935F936F937F938F939F93A8
:10187000AF93BF93EF93FF938091B90090E0887F7F
:1018800090708036910509F4F2C081369105CCF54F
:101890008832910509F47BC089329105B4F4803116
:1018A000910509F46FC0813191053CF4009709F46A
:1018B00047C1089709F04FC165C08831910509F407
:1018C00066C0809709F047C182C08034910509F451
:1018D000A4C08134910544F48033910509F482C099
:1018E000C89709F038C189C08035910509F489C0CD
:1018F0008835910509F496C08834910509F02BC10B
:10190000AEC08839910509F413C189399105ECF409
:101910008837910509F4ABC0893791054CF48836B6
:10192000910509F4A4C08037910509F014C19FC046
:101930008838910509F4FCC08039910509F49DC0EF
:101940008038910509F007C198C0803B910509F4E2
:10195000C6C0813B91054CF4803A910509F49FC0C3
:10196000883A910509F0F7C0BAC0803C910509F4A6
:10197000E3C0883C910509F4DFC0883B910509F07C
:10198000EAC0C2C080912B038093BB00CFC090916E
:10199000520380915303981768F490915203E92FF2
:1019A000F0E0EE5CFC4F80818093BB009F5F9093E2
:1019B0005203BCC080912C03882309F44BC085EDF1
:1019C0008093BC008091BC0084FDFCCFC2C080E24B
:1019D0008093970385ED8093BC008091BC0084FDCB
:1019E000FCCFB7C080E38093970385ED8093BC0064
:1019F0008091BC0084FDFCCFACC088E3809397034A
:101A00009BC0809152039091BB00E82FF0E0EE5C08
:101A1000FC4F90838F5F809352039091520380918B
:101A2000530382C0809152039091BB00E82FF0E0F5
:101A3000EE5CFC4F90838F5F8093520380912C0368
:101A4000882341F085ED8093BC008091BC0084FD2B
:101A5000FCCF7FC081E080932D0384EA6EC085EDCA
:101A60008093BC008091BC0084FDFCCF72C083E0F9
:101A700080932A031092960359C080919603803276
:101A800008F056C0809196039091BB00E82FF0E0DB
:101A9000EA58FC4F90838F5F8093960347C08091F4
:101AA0009603803230F4E0919603F0E0EA58FC4F60
:101AB000108285ED8093BC008091BC0084FDFCCF3A
:101AC00010922A0360919603E0913003F091310364
:101AD00086E793E070E00995109296032DC084E0AC
:101AE00080932A031092740310927503E0912E03E1
:101AF000F0912F03099580917503882329F481E0E3
:101B0000809375031092540390917403E92FF0E0D1
:101B1000EC5AFC4F80818093BB009F5F90937403CD
:101B20009091740380917503981710F485EC01C0AF
:101B300085E88093BC000FC085EC8093BC0009C091
:101B40001092970385ED8093BC008091BC0084FDCA
:101B5000FCCF10922A03FF91EF91BF91AF919F911B
:101B60008F917F916F915F914F913F912F910F9046
:101B70000FBE0F901F90189510922A0381E080935A
:101B80002C0310922D0382E161E00E947F1583E116
:101B900061E00E947F15E9EBF0E080818E7F808319
:101BA00080818D7F808388E48093B80085E4809372
:101BB000BC000895EF92FF920F931F937C018B015D
:101BC000DC01ED91FC91A081B1816F772D913C9169
:101BD000CF01F9010995D701ED91FC91A081B18167
:101BE000000F012F001F110B0F772D913C91CF019A
:101BF000602FF90109951F910F91FF90EF900895C3
:101C0000FC010190F081E02DA081B1812D913C91EA
:101C1000CF0160EFF90109950895FC010190F08171
:101C2000E02DA081B1812D913C91CF0167EFF901A9
:101C3000099508950F931F938C01DC01ED91FC91A0
:101C4000A081B1812D913C91CF0169EFF9010995F6
:101C5000D801ED91FC91A081B1812D913C91CF01F2
:101C600062E0F9010995D801ED91FC91A081B18163
:101C70002D913C91CF0163E0F90109951F910F91DE
:101C800008951F93CF93DF93EC018A818823C9F1D4
:101C9000CE010E94000EE881F981A081B1812D91D1
:101CA0003C91CF0169E7F9010995E881F981A081AB
:101CB000B1812B813C814D915C91CF01F901608113
:101CC000FA010995E881F981A081B1812B813C81DC
:101CD0004D915C91CF01F9016181FA01099512E002
:101CE0000AC0EB81FC81E10FF11D6081CE0170E043
:101CF0000E94DA0D1F5F8A81181798F3CE010E94A7
:101D00000D0EDF91CF911F910895FC01A081B1814B
:101D1000ED91FC9111970480F581E02DCD0109959D
:101D20000895EF92FF920F931F938C017A01DC01CB
:101D3000ED91FC91A081B1816F70606E2D913C910D
:101D4000CF01F9010995C801B7010E94DA0D1F9171
:101D50000F91FF90EF900895EF92FF920F931F93D2
:101D60007C018A01DC01ED91FC91A081B1816F7051
:101D700060692D913C91CF01F9010995D701ED9151
:101D8000FC91A081B181602F6F772D913C91CF01A3
:101D9000F9010995D701ED91FC91A081B181000F66
:101DA000012F001F110B2D913C91CF01602FF901E4
:101DB00009951F910F91FF90EF900895DF92EF9298
:101DC000FF920F931F93CF93DF93EC01162FD42E26
:101DD000022FF32E0E94000EE881F981A081B181CB
:101DE0002D913C91CF01612FF9010995202F3F2DB5
:101DF000C9017C0110E008C0F70161917F01CE01AB
:101E000070E00E94DA0D1F5F1D15B0F3CE010E9435
:101E10000D0EDF91CF911F910F91FF90EF90DF900A
:101E20000895FC01603DA9F0613D28F4603959F046
:101E3000603CA1F40BC0603E19F0643F79F40CC023
:101E400054A743A7089556A745A7089550AB47A7A1
:101E5000089552AB41AB089554AB43AB0895FC01D8
:101E60006F3F11F456AB45AB0895FC0152AF41AF43
:101E70000895FC01158216821782DC0180E0189615
:101E80001C9218978F5F11968032C9F710A612A680
:101E900011A605A8F6A9E02D309709F00995089537
:101EA000FC017183608312820E94390F089588E9D2
:101EB00093E06BE574E00E94500F08954F925F929B
:101EC0006F927F928F929F92AF92BF92CF92DF924A
:101ED000EF92FF920F93DF93CF9300D0CDB7DEB791
:101EE0002B017A013A8329838DE061E00E9440153D
:101EF00000E089819A813C01882477FC8094982CA9
:101F00005701CC24B7FCC094DC2C11C0C401B30130
:101F10000E9420148DE061E00E947F15C601B5018A
:101F20000E9420148DE060E00E947F150F5F802FDB
:101F300090E08415950554F30F900F90CF91DF91A9
:101F40000F91FF90EF90DF90CF90BF90AF909F9058
:101F50008F907F906F905F904F9008950F931F9395
:101F60008C018DE061E00E944015C80162E070E0E4
:101F700048E250E022ED30E00E945E0F6AEF70E030
:101F800080E090E00E942014C80163E070E048E225
:101F900050E022ED30E00E945E0F6DE770E080E0DF
:101FA00090E00E9420141F910F9108959A01FA0168
:101FB00001900020E9F73197E41BF50B4E2F0E94AA
:101FC000DE0E0895AB0161E70E94D60F08951F93BE
:101FD000CF93DF93EC018885813731F0893789F51C
:101FE000CE010E94410E36C08FA998AD892B91F188
:101FF00089A59AA5019762E070E00E944716162F06
:10200000862F90E00E948F00AC01DC0121E030E0DF
:1020100011C0FE01E20FF11D90859C932F5FFE0120
:10202000E20FF11D8085879588278795890F8D930D
:102030002F5F3F5F311768F3EFA9F8ADCA0109952B
:1020400009C0E9ADFAAD309729F069A5615029962C
:10205000AE010995DF91CF911F910895CF93DF9342
:10206000EC01A881B981ED91FC9111970680F7816F
:10207000E02DCD010995AC0188A5882391F0473F5B
:10208000510529F418A6CE010E94E70F93C089A537
:102090009AA5FE01E80FF91F408701969AA789A724
:1020A00089C08D81882309F446C0403851050CF061
:1020B00042C081508D83FE01E80FF11D40878823C7
:1020C00009F078C08E81882309F474C0803D49F1FD
:1020D000813D28F4803959F0803C59F51FC0803E7D
:1020E00019F0843F31F513C0EBA5FCA502C0EDA5A6
:1020F000FEA53097F1F0688570E07695762F66271B
:10210000779567958985680F711D8F8111C0EBA93F
:10211000FCA9309771F06885898509C0EFA5F8A9F9
:1021200002C0E9A9FAA9309721F068858F8170E093
:1021300009951E823FC0403F510514F09A0106C028
:102140009A01207F3070842F8F708F83203E31055D
:10215000F1F0213E310554F4203C3105D1F0203D11
:102160003105B9F02039310529F511C0243F310579
:1021700071F0253F310524F4203F3105D9F40DC01D
:10218000293F310599F02F3F3105A1F40BC082E0C2
:1021900001C081E08D832E830DC081E088A71AA63F
:1021A00019A608C0CE010E94390F04C088E993E047
:1021B0000E941A0EDF91CF910895AF92BF92CF92F5
:1021C000DF92EF92FF920F931F93CF93DF938C01D7
:1021D000D62EC72EB42EA22E862F972F65ED71E036
:1021E0000E94AB01EC018D2D9C2D6FE270E00E94EE
:1021F000A001209779F07C010894E11CF11CE11406
:10220000F10441F09E012E5F822F8E19D8011296A3
:102210008C930FC0AD2DBC2DFD0101900020E9F77E
:10222000ED19EF5FD8011296EC932D2D3C2DC901CD
:102230007C01F801828190E00E948F00FC01D801AE
:1022400014969C938E93139712968C911297E80F85
:10225000F11D10821396ED91FC911497B0821396A4
:10226000ED91FC911497A18213968D919C911497F6
:1022700012964C9150E0425050400296B7010E9495
:102280009101DF91CF911F910F91FF90EF90DF901F
:10229000CF90BF90AF9008950F931F938C018BE563
:1022A00094E00E940A12D801ED91FC9180915D04A6
:1022B00090915E049383828380915F049091600487
:1022C000A0916104B091620484839583A683B7834F
:1022D0008091630490916404A0916504B0916604B8
:1022E00080879187A287B387C8010E94AE0FC8017B
:1022F0000E941A0EC8010E94410E1F910F9108956D
:1023000008951F920F920FB60F9211242F933F93AF
:102310004F938F939F93EF93FF938091C00082FD23
:102320001DC04091C60020911304309114042F5F0A
:102330003F4F2F7330708091150490911604281729
:10234000390771F0E0911304F0911404ED52FC4F41
:102350004083309314042093130402C08091C6007C
:10236000FF91EF919F918F914F913F912F910F90FE
:102370000FBE0F901F901895E0916704F0916804CC
:10238000E05CFF4F8191919120813181821B930B01
:102390008F739070892B11F00E94801108951F9205
:1023A0000F920FB60F9211242F933F938F939F9309
:1023B000EF93FF9320915704309158048091590472
:1023C00090915A042817390731F48091C1008F7D0C
:1023D0008093C10014C0E0915904F0915A04E95E61
:1023E000FB4F20818091590490915A0401968F737C
:1023F000907090935A04809359042093C600FF91E3
:10240000EF919F918F913F912F910F900FBE0F9061
:102410001F901895AF92BF92DF92EF92FF920F93A9
:102420001F93CF93DF93EC017A018B01DD244030C1
:1024300081EE580780E0680780E0780711F0DD241E
:10244000D39491E0A92EB12CEC89FD89DD2069F0AF
:10245000C50108A002C0880F991F0A94E2F7808383
:1024600060E079E08DE390E005C0108260E874E8F8
:102470008EE190E0A80197010E945A162150304049
:1024800040405040569547953795279580E120303C
:10249000380720F0DD2011F0DD24D6CFE889F98956
:1024A0003083EA89FB89208319A2EE89FF89408164
:1024B00021E030E0C9010C8C02C0880F991F0A94FA
:1024C000E2F7482B4083EE89FF894081C9010D8CDA
:1024D00002C0880F991F0A94E2F7482B4083EE89C7
:1024E000FF894081C9010E8C02C0880F991F0A9490
:1024F000E2F7482B4083EE89FF8980810F8C02C070
:10250000220F331F0A94E2F7209528232083DF91BE
:10251000CF911F910F91FF90EF90DF90BF90AF9000
:102520000895DC011C96ED91FC911D97E05CFF4F36
:102530002191319180819181281B390B2F7330704B
:10254000C9010895DC011C96ED91FC911D97E05C9A
:10255000FF4F20813181E054F040DF01AE5BBF4F7F
:102560008D919C9111972817390719F42FEF3FEFA0
:1025700007C08D919C91E80FF91F8081282F30E0D2
:10258000C9010895DC011C96ED91FC911D97E05C5A
:10259000FF4F20813181E054F040DF01AE5BBF4F3F
:1025A0008D919C9111972817390719F42FEF3FEF60
:1025B00010C08D919C911197E80FF91F20818D918A
:1025C0009C91119701968F73907011969C938E93A6
:1025D00030E0C9010895DC0191968C919197882390
:1025E00039F05496ED91FC915597808186FFF9CF93
:1025F00091961C920895CF93DF93EC01EE85FF85B1
:10260000E05CFF4F20813181E054F0402F5F3F4F6D
:102610002F733070DF01AE5BBF4F8D919C9111978E
:1026200028173907D1F3E05CFF4F80819181E05496
:10263000F040E80FF91F6083EE85FF85E05CFF4FF7
:1026400031832083EE89FF89208181E090E00F8C27
:1026500002C0880F991F0A94E2F7282B208381E09B
:1026600089A3EC89FD8980818064808381E090E08A
:10267000DF91CF91089510925E0410925D0488EE70
:1026800093E0A0E0B0E080935F0490936004A09397
:102690006104B093620488EF91E090935C048093AE
:1026A0005B0483ED93E0909368048093670487E173
:1026B00094E090936A048093690485EC90E0909391
:1026C0006C0480936B0484EC90E090936E04809390
:1026D0006D0480EC90E09093700480936F0481EC23
:1026E00090E0909372048093710482EC90E0909358
:1026F00074048093730486EC90E090937604809346
:10270000750484E08093770483E08093780487E005
:102710008093790485E080937A0481E080937B0440
:102720000895CF93DF930E9483140E943604CCEB6C
:10273000D1E10E944C052097E1F30E94BC11F9CF32
:10274000CF92DF92EF92FF920F931F93CF93DF937D
:102750007C016B018A01C0E0D0E00FC0D6016D9111
:102760006D01D701ED91FC910190F081E02DC70141
:102770000995C80FD91F015010400115110571F7B7
:10278000CE01DF91CF911F910F91FF90EF90DF90DD
:10279000CF9008951F920F920FB60F9211242F938E
:1027A0003F938F939F93AF93BF93809181049091B8
:1027B0008204A0918304B091840430918504019631
:1027C000A11DB11D232F2D5F2D3720F02D57019610
:1027D000A11DB11D209385048093810490938204F0
:1027E000A0938304B093840480917D0490917E042F
:1027F000A0917F04B09180040196A11DB11D80932A
:102800007D0490937E04A0937F04B0938004BF91D5
:10281000AF919F918F913F912F910F900FBE0F908D
:102820001F9018958FB7F8942091810430918204FD
:1028300040918304509184048FBFB901CA01089567
:102840009B01AC017FB7F89480917D0490917E0448
:10285000A0917F04B091800466B5A89B05C06F3F2E
:1028600019F00196A11DB11D7FBFBA2FA92F982F76
:102870008827860F911DA11DB11D62E0880F991F49
:10288000AA1FBB1F6A95D1F7BC012DC0FFB7F894F2
:1028900080917D0490917E04A0917F04B09180048A
:1028A000E6B5A89B05C0EF3F19F00196A11DB11D2B
:1028B000FFBFBA2FA92F982F88278E0F911DA11D1A
:1028C000B11DE2E0880F991FAA1FBB1FEA95D1F73F
:1028D000861B970B885E9340C8F2215030404040E1
:1028E000504068517C4F211531054105510571F665
:1028F0000895019739F0880F991F880F991F029743
:102900000197F1F70895789484B5826084BD84B509
:10291000816084BD85B5826085BD85B5816085BDDA
:10292000EEE6F0E0808181608083E1E8F0E01082F3
:10293000808182608083808181608083E0E8F0E034
:10294000808181608083E1EBF0E08081846080831E
:10295000E0EBF0E0808181608083EAE7F0E0808155
:1029600084608083808182608083808181608083B5
:102970008081806880831092C1000895982F8E30E6
:1029800008F09E5097708091E3018295880F880F20
:10299000807C892B80937C0080917A008064809376
:1029A0007A0080917A0086FDFCCF209178004091DA
:1029B0007900942F80E030E0282B392BC90108954D
:1029C0001F93CF93DF93182FEB0161E00E94401516
:1029D000209709F44AC0CF3FD10509F449C0E12F3F
:1029E000F0E0E255FF4F84918330C1F0843028F449
:1029F000813051F08230B1F50CC0863019F187304A
:102A000049F1843079F514C084B5806884BDC7BDB0
:102A100033C084B5806284BDC8BD2EC08091800063
:102A2000806880938000D0938900C093880024C080
:102A300080918000806280938000D0938B00C0934F
:102A40008A001AC08091B00080688093B000C09363
:102A5000B30012C08091B00080628093B000C09338
:102A6000B4000AC0C038D1051CF4812F60E002C058
:102A7000812F61E00E947F15DF91CF911F91089512
:102A8000CF93DF93482F50E0CA0186569F4FFC0139
:102A900034914A575F4FFA018491882369F190E09D
:102AA000880F991FFC01E859FF4FA591B491FC01D3
:102AB000EE58FF4FC591D491662351F42FB7F89487
:102AC0008C91932F909589238C93888189230BC0B7
:102AD000623061F42FB7F8948C91932F90958923ED
:102AE0008C938881832B88832FBF06C09FB7F8946F
:102AF0008C91832B8C939FBFDF91CF910895482FAA
:102B000050E0CA0182559F4FFC012491CA018656AC
:102B10009F4FFC0194914A575F4FFA013491332340
:102B200009F440C0222351F1233071F0243028F4FD
:102B30002130A1F0223011F514C02630B1F0273039
:102B4000C1F02430D9F404C0809180008F7703C095
:102B5000809180008F7D8093800010C084B58F7736
:102B600002C084B58F7D84BD09C08091B0008F778D
:102B700003C08091B0008F7D8093B000E32FF0E020
:102B8000EE0FFF1FEE58FF4FA591B4912FB7F894A9
:102B9000662321F48C919095892302C08C91892B16
:102BA0008C932FBF08952F923F924F925F926F9216
:102BB0007F928F929F92AF92BF92CF92DF92EF92CD
:102BC000FF920F931F93DF93CF93CDB7DEB73B01F7
:102BD0004C0119012A016D897E898F89988D6A19A6
:102BE0007B098C099D09621A730A840A950AA4015B
:102BF00093010E941C16E218F30804091509A801A4
:102C000097010E947C162A0D3B1D4C1D5D1DB901CC
:102C1000CA01CF91DF911F910F91FF90EF90DF904C
:102C2000CF90BF90AF909F908F907F906F905F906C
:102C30004F903F902F900895629FD001739FF001B5
:102C4000829FE00DF11D649FE00DF11D929FF00D3C
:102C5000839FF00D749FF00D659FF00D9927729F73
:102C6000B00DE11DF91F639FB00DE11DF91FBD01FE
:102C7000CF0111240895991B79E004C0991F96177C
:102C800008F0961B881F7A95C9F78095089597FBE1
:102C9000092E07260AD077FD04D049D006D000209F
:102CA0001AF4709561957F4F0895F6F79095819588
:102CB0009F4F0895A1E21A2EAA1BBB1BFD010DC058
:102CC000AA1FBB1FEE1FFF1FA217B307E407F507DC
:102CD00020F0A21BB30BE40BF50B661F771F881FB8
:102CE000991F1A9469F760957095809590959B014E
:102CF000AC01BD01CF01089597FB092E05260ED02A
:102D000057FD04D0D7DF0AD0001C38F45095409509
:102D1000309521953F4F4F4F5F4F0895F6F79095AF
:102D20008095709561957F4F8F4F9F4F0895AA1B97
:102D3000BB1B51E107C0AA1FBB1FA617B70710F0A6
:102D4000A61BB70B881F991F5A95A9F780959095D8
:102D5000BC01CD010895EE0FFF1F0590F491E02D09
:062D60000994F894FFCF76
:102D6600556E6B6E6F776E2070696E206D6F646541
:102D760000433A5C55736572735C546F6D5C4170C9
:102D860070446174615C4C6F63616C5C54656D701A
:102D96002F5374616E646172644669726D61746109
:102DA6002E696E6F2E637070004932432052656142
:102DB60064204572726F723A20546F6F206D616E97
:102DC60079206279746573207265636569766564D6
:102DD600004932432052656164204572726F723A2F
:102DE60020546F6F20666577206279746573207250
:102DF600656365697665640031302D6269742061AA
:102E0600646472657373696E67206D6F64652069AB
:102E160073206E6F742079657420737570706F728D
:102E260074656400746F6F206D616E7920717565CD
:102E360072696573002E6370700020008A040000BA
:102E46001300FF01000000000F0BDE0A970AA00A1C
:102E5600B50AC60A00000000FB12A0139112C212A6
:042E6600A212EB12B7
:00000001FF
